{"contracts/Note.sol":{"NoteFactory":{"abi":[{"anonymous":false,"inputs":[{"indexed":false,"internalType":"string","name":"title","type":"string"},{"indexed":false,"internalType":"address","name":"NoteAddress","type":"address"},{"indexed":true,"internalType":"address","name":"owner","type":"address"},{"indexed":false,"internalType":"string","name":"imgURI","type":"string"},{"indexed":true,"internalType":"uint256","name":"timestamp","type":"uint256"},{"indexed":false,"internalType":"string","name":"storyURI","type":"string"},{"indexed":true,"internalType":"string","name":"category","type":"string"}],"name":"NoteCreated","type":"event"},{"inputs":[{"internalType":"string","name":"NoteTitle","type":"string"},{"internalType":"string","name":"imgURI","type":"string"},{"internalType":"string","name":"category","type":"string"},{"internalType":"string","name":"storyURI","type":"string"}],"name":"createNote","outputs":[],"stateMutability":"nonpayable","type":"function"},{"inputs":[{"internalType":"uint256","name":"","type":"uint256"}],"name":"deployedNotes","outputs":[{"internalType":"address","name":"","type":"address"}],"stateMutability":"view","type":"function"}],"evm":{"bytecode":{"linkReferences":{},"object":"608060405234801561001057600080fd5b50611024806100206000396000f3fe60806040523480156200001157600080fd5b50600436106200003a5760003560e01c806328de5491146200003f5780635782c2011462000075575b600080fd5b6200005d60048036038101906200005791906200024e565b62000095565b6040516200006c9190620002c5565b60405180910390f35b6200009360048036038101906200008d919062000444565b620000d5565b005b60008181548110620000a657600080fd5b906000526020600020016000915054906101000a900473ffffffffffffffffffffffffffffffffffffffff1681565b600084848333604051620000e990620001f1565b620000f89493929190620005c5565b604051809103906000f08015801562000115573d6000803e3d6000fd5b5090506000819080600181540180825580915050600190039060005260206000200160009091909190916101000a81548173ffffffffffffffffffffffffffffffffffffffff021916908373ffffffffffffffffffffffffffffffffffffffff160217905550826040516200018b919062000669565b6040518091039020423373ffffffffffffffffffffffffffffffffffffffff167f897ec2327523691f5cf1640515998660f0a6441da9619e6bb4bc01035ffca21288858988604051620001e2949392919062000682565b60405180910390a45050505050565b61090a80620006e583390190565b6000604051905090565b600080fd5b600080fd5b6000819050919050565b620002288162000213565b81146200023457600080fd5b50565b60008135905062000248816200021d565b92915050565b60006020828403121562000267576200026662000209565b5b6000620002778482850162000237565b91505092915050565b600073ffffffffffffffffffffffffffffffffffffffff82169050919050565b6000620002ad8262000280565b9050919050565b620002bf81620002a0565b82525050565b6000602082019050620002dc6000830184620002b4565b92915050565b600080fd5b600080fd5b6000601f19601f8301169050919050565b7f4e487b7100000000000000000000000000000000000000000000000000000000600052604160045260246000fd5b6200033782620002ec565b810181811067ffffffffffffffff82111715620003595762000358620002fd565b5b80604052505050565b60006200036e620001ff565b90506200037c82826200032c565b919050565b600067ffffffffffffffff8211156200039f576200039e620002fd565b5b620003aa82620002ec565b9050602081019050919050565b82818337600083830152505050565b6000620003dd620003d78462000381565b62000362565b905082815260208101848484011115620003fc57620003fb620002e7565b5b62000409848285620003b7565b509392505050565b600082601f830112620004295762000428620002e2565b5b81356200043b848260208601620003c6565b91505092915050565b6000806000806080858703121562000461576200046062000209565b5b600085013567ffffffffffffffff8111156200048257620004816200020e565b5b620004908782880162000411565b945050602085013567ffffffffffffffff811115620004b457620004b36200020e565b5b620004c28782880162000411565b935050604085013567ffffffffffffffff811115620004e657620004e56200020e565b5b620004f48782880162000411565b925050606085013567ffffffffffffffff8111156200051857620005176200020e565b5b620005268782880162000411565b91505092959194509250565b600081519050919050565b600082825260208201905092915050565b60005b838110156200056e57808201518184015260208101905062000551565b838111156200057e576000848401525b50505050565b6000620005918262000532565b6200059d81856200053d565b9350620005af8185602086016200054e565b620005ba81620002ec565b840191505092915050565b60006080820190508181036000830152620005e1818762000584565b90508181036020830152620005f7818662000584565b905081810360408301526200060d818562000584565b90506200061e6060830184620002b4565b95945050505050565b600081905092915050565b60006200063f8262000532565b6200064b818562000627565b93506200065d8185602086016200054e565b80840191505092915050565b600062000677828462000632565b915081905092915050565b600060808201905081810360008301526200069e818762000584565b9050620006af6020830186620002b4565b8181036040830152620006c3818562000584565b90508181036060830152620006d9818462000584565b90509594505050505056fe60806040523480156200001157600080fd5b506040516200090a3803806200090a83398181016040528101906200003791906200037f565b83600090805190602001906200004f929190620000cd565b50826001908051906020019062000068929190620000cd565b50816002908051906020019062000081929190620000cd565b5080600360006101000a81548173ffffffffffffffffffffffffffffffffffffffff021916908373ffffffffffffffffffffffffffffffffffffffff16021790555050505050620004b3565b828054620000db906200047d565b90600052602060002090601f016020900481019282620000ff57600085556200014b565b82601f106200011a57805160ff19168380011785556200014b565b828001600101855582156200014b579182015b828111156200014a5782518255916020019190600101906200012d565b5b5090506200015a91906200015e565b5090565b5b80821115620001795760008160009055506001016200015f565b5090565b6000604051905090565b600080fd5b600080fd5b600080fd5b600080fd5b6000601f19601f8301169050919050565b7f4e487b7100000000000000000000000000000000000000000000000000000000600052604160045260246000fd5b620001e6826200019b565b810181811067ffffffffffffffff82111715620002085762000207620001ac565b5b80604052505050565b60006200021d6200017d565b90506200022b8282620001db565b919050565b600067ffffffffffffffff8211156200024e576200024d620001ac565b5b62000259826200019b565b9050602081019050919050565b60005b838110156200028657808201518184015260208101905062000269565b8381111562000296576000848401525b50505050565b6000620002b3620002ad8462000230565b62000211565b905082815260208101848484011115620002d257620002d162000196565b5b620002df84828562000266565b509392505050565b600082601f830112620002ff57620002fe62000191565b5b8151620003118482602086016200029c565b91505092915050565b600073ffffffffffffffffffffffffffffffffffffffff82169050919050565b600062000347826200031a565b9050919050565b62000359816200033a565b81146200036557600080fd5b50565b60008151905062000379816200034e565b92915050565b600080600080608085870312156200039c576200039b62000187565b5b600085015167ffffffffffffffff811115620003bd57620003bc6200018c565b5b620003cb87828801620002e7565b945050602085015167ffffffffffffffff811115620003ef57620003ee6200018c565b5b620003fd87828801620002e7565b935050604085015167ffffffffffffffff8111156200042157620004206200018c565b5b6200042f87828801620002e7565b9250506060620004428782880162000368565b91505092959194509250565b7f4e487b7100000000000000000000000000000000000000000000000000000000600052602260045260246000fd5b600060028204905060018216806200049657607f821691505b60208210811415620004ad57620004ac6200044e565b5b50919050565b61044780620004c36000396000f3fe608060405234801561001057600080fd5b506004361061004c5760003560e01c806346c922d1146100515780634a79d50c1461006f5780638da5cb5b1461008d578063f3ccaac0146100ab575b600080fd5b6100596100c9565b6040516100669190610332565b60405180910390f35b610077610157565b6040516100849190610332565b60405180910390f35b6100956101e5565b6040516100a29190610395565b60405180910390f35b6100b361020b565b6040516100c09190610332565b60405180910390f35b600280546100d6906103df565b80601f0160208091040260200160405190810160405280929190818152602001828054610102906103df565b801561014f5780601f106101245761010080835404028352916020019161014f565b820191906000526020600020905b81548152906001019060200180831161013257829003601f168201915b505050505081565b60008054610164906103df565b80601f0160208091040260200160405190810160405280929190818152602001828054610190906103df565b80156101dd5780601f106101b2576101008083540402835291602001916101dd565b820191906000526020600020905b8154815290600101906020018083116101c057829003601f168201915b505050505081565b600360009054906101000a900473ffffffffffffffffffffffffffffffffffffffff1681565b60018054610218906103df565b80601f0160208091040260200160405190810160405280929190818152602001828054610244906103df565b80156102915780601f1061026657610100808354040283529160200191610291565b820191906000526020600020905b81548152906001019060200180831161027457829003601f168201915b505050505081565b600081519050919050565b600082825260208201905092915050565b60005b838110156102d35780820151818401526020810190506102b8565b838111156102e2576000848401525b50505050565b6000601f19601f8301169050919050565b600061030482610299565b61030e81856102a4565b935061031e8185602086016102b5565b610327816102e8565b840191505092915050565b6000602082019050818103600083015261034c81846102f9565b905092915050565b600073ffffffffffffffffffffffffffffffffffffffff82169050919050565b600061037f82610354565b9050919050565b61038f81610374565b82525050565b60006020820190506103aa6000830184610386565b92915050565b7f4e487b7100000000000000000000000000000000000000000000000000000000600052602260045260246000fd5b600060028204905060018216806103f757607f821691505b6020821081141561040b5761040a6103b0565b5b5091905056fea2646970667358221220258d2e056e5ea55158fa980ebb4f569f37b2d65edfb083b13b2eafaed11eee9364736f6c634300080a0033a26469706673582212209eabb169adc0ae286a3338fd06a2607fa575609839921de6251bd501c4bf22fa64736f6c634300080a0033","opcodes":"PUSH1 0x80 PUSH1 0x40 MSTORE CALLVALUE DUP1 ISZERO PUSH2 0x10 JUMPI PUSH1 0x0 DUP1 REVERT JUMPDEST POP PUSH2 0x1024 DUP1 PUSH2 0x20 PUSH1 0x0 CODECOPY PUSH1 0x0 RETURN INVALID PUSH1 0x80 PUSH1 0x40 MSTORE CALLVALUE DUP1 ISZERO PUSH3 0x11 JUMPI PUSH1 0x0 DUP1 REVERT JUMPDEST POP PUSH1 0x4 CALLDATASIZE LT PUSH3 0x3A JUMPI PUSH1 0x0 CALLDATALOAD PUSH1 0xE0 SHR DUP1 PUSH4 0x28DE5491 EQ PUSH3 0x3F JUMPI DUP1 PUSH4 0x5782C201 EQ PUSH3 0x75 JUMPI JUMPDEST PUSH1 0x0 DUP1 REVERT JUMPDEST PUSH3 0x5D PUSH1 0x4 DUP1 CALLDATASIZE SUB DUP2 ADD SWAP1 PUSH3 0x57 SWAP2 SWAP1 PUSH3 0x24E JUMP JUMPDEST PUSH3 0x95 JUMP JUMPDEST PUSH1 0x40 MLOAD PUSH3 0x6C SWAP2 SWAP1 PUSH3 0x2C5 JUMP JUMPDEST PUSH1 0x40 MLOAD DUP1 SWAP2 SUB SWAP1 RETURN JUMPDEST PUSH3 0x93 PUSH1 0x4 DUP1 CALLDATASIZE SUB DUP2 ADD SWAP1 PUSH3 0x8D SWAP2 SWAP1 PUSH3 0x444 JUMP JUMPDEST PUSH3 0xD5 JUMP JUMPDEST STOP JUMPDEST PUSH1 0x0 DUP2 DUP2 SLOAD DUP2 LT PUSH3 0xA6 JUMPI PUSH1 0x0 DUP1 REVERT JUMPDEST SWAP1 PUSH1 0x0 MSTORE PUSH1 0x20 PUSH1 0x0 KECCAK256 ADD PUSH1 0x0 SWAP2 POP SLOAD SWAP1 PUSH2 0x100 EXP SWAP1 DIV PUSH20 0xFFFFFFFFFFFFFFFFFFFFFFFFFFFFFFFFFFFFFFFF AND DUP2 JUMP JUMPDEST PUSH1 0x0 DUP5 DUP5 DUP4 CALLER PUSH1 0x40 MLOAD PUSH3 0xE9 SWAP1 PUSH3 0x1F1 JUMP JUMPDEST PUSH3 0xF8 SWAP5 SWAP4 SWAP3 SWAP2 SWAP1 PUSH3 0x5C5 JUMP JUMPDEST PUSH1 0x40 MLOAD DUP1 SWAP2 SUB SWAP1 PUSH1 0x0 CREATE DUP1 ISZERO DUP1 ISZERO PUSH3 0x115 JUMPI RETURNDATASIZE PUSH1 0x0 DUP1 RETURNDATACOPY RETURNDATASIZE PUSH1 0x0 REVERT JUMPDEST POP SWAP1 POP PUSH1 0x0 DUP2 SWAP1 DUP1 PUSH1 0x1 DUP2 SLOAD ADD DUP1 DUP3 SSTORE DUP1 SWAP2 POP POP PUSH1 0x1 SWAP1 SUB SWAP1 PUSH1 0x0 MSTORE PUSH1 0x20 PUSH1 0x0 KECCAK256 ADD PUSH1 0x0 SWAP1 SWAP2 SWAP1 SWAP2 SWAP1 SWAP2 PUSH2 0x100 EXP DUP2 SLOAD DUP2 PUSH20 0xFFFFFFFFFFFFFFFFFFFFFFFFFFFFFFFFFFFFFFFF MUL NOT AND SWAP1 DUP4 PUSH20 0xFFFFFFFFFFFFFFFFFFFFFFFFFFFFFFFFFFFFFFFF AND MUL OR SWAP1 SSTORE POP DUP3 PUSH1 0x40 MLOAD PUSH3 0x18B SWAP2 SWAP1 PUSH3 0x669 JUMP JUMPDEST PUSH1 0x40 MLOAD DUP1 SWAP2 SUB SWAP1 KECCAK256 TIMESTAMP CALLER PUSH20 0xFFFFFFFFFFFFFFFFFFFFFFFFFFFFFFFFFFFFFFFF AND PUSH32 0x897EC2327523691F5CF1640515998660F0A6441DA9619E6BB4BC01035FFCA212 DUP9 DUP6 DUP10 DUP9 PUSH1 0x40 MLOAD PUSH3 0x1E2 SWAP5 SWAP4 SWAP3 SWAP2 SWAP1 PUSH3 0x682 JUMP JUMPDEST PUSH1 0x40 MLOAD DUP1 SWAP2 SUB SWAP1 LOG4 POP POP POP POP POP JUMP JUMPDEST PUSH2 0x90A DUP1 PUSH3 0x6E5 DUP4 CODECOPY ADD SWAP1 JUMP JUMPDEST PUSH1 0x0 PUSH1 0x40 MLOAD SWAP1 POP SWAP1 JUMP JUMPDEST PUSH1 0x0 DUP1 REVERT JUMPDEST PUSH1 0x0 DUP1 REVERT JUMPDEST PUSH1 0x0 DUP2 SWAP1 POP SWAP2 SWAP1 POP JUMP JUMPDEST PUSH3 0x228 DUP2 PUSH3 0x213 JUMP JUMPDEST DUP2 EQ PUSH3 0x234 JUMPI PUSH1 0x0 DUP1 REVERT JUMPDEST POP JUMP JUMPDEST PUSH1 0x0 DUP2 CALLDATALOAD SWAP1 POP PUSH3 0x248 DUP2 PUSH3 0x21D JUMP JUMPDEST SWAP3 SWAP2 POP POP JUMP JUMPDEST PUSH1 0x0 PUSH1 0x20 DUP3 DUP5 SUB SLT ISZERO PUSH3 0x267 JUMPI PUSH3 0x266 PUSH3 0x209 JUMP JUMPDEST JUMPDEST PUSH1 0x0 PUSH3 0x277 DUP5 DUP3 DUP6 ADD PUSH3 0x237 JUMP JUMPDEST SWAP2 POP POP SWAP3 SWAP2 POP POP JUMP JUMPDEST PUSH1 0x0 PUSH20 0xFFFFFFFFFFFFFFFFFFFFFFFFFFFFFFFFFFFFFFFF DUP3 AND SWAP1 POP SWAP2 SWAP1 POP JUMP JUMPDEST PUSH1 0x0 PUSH3 0x2AD DUP3 PUSH3 0x280 JUMP JUMPDEST SWAP1 POP SWAP2 SWAP1 POP JUMP JUMPDEST PUSH3 0x2BF DUP2 PUSH3 0x2A0 JUMP JUMPDEST DUP3 MSTORE POP POP JUMP JUMPDEST PUSH1 0x0 PUSH1 0x20 DUP3 ADD SWAP1 POP PUSH3 0x2DC PUSH1 0x0 DUP4 ADD DUP5 PUSH3 0x2B4 JUMP JUMPDEST SWAP3 SWAP2 POP POP JUMP JUMPDEST PUSH1 0x0 DUP1 REVERT JUMPDEST PUSH1 0x0 DUP1 REVERT JUMPDEST PUSH1 0x0 PUSH1 0x1F NOT PUSH1 0x1F DUP4 ADD AND SWAP1 POP SWAP2 SWAP1 POP JUMP JUMPDEST PUSH32 0x4E487B7100000000000000000000000000000000000000000000000000000000 PUSH1 0x0 MSTORE PUSH1 0x41 PUSH1 0x4 MSTORE PUSH1 0x24 PUSH1 0x0 REVERT JUMPDEST PUSH3 0x337 DUP3 PUSH3 0x2EC JUMP JUMPDEST DUP2 ADD DUP2 DUP2 LT PUSH8 0xFFFFFFFFFFFFFFFF DUP3 GT OR ISZERO PUSH3 0x359 JUMPI PUSH3 0x358 PUSH3 0x2FD JUMP JUMPDEST JUMPDEST DUP1 PUSH1 0x40 MSTORE POP POP POP JUMP JUMPDEST PUSH1 0x0 PUSH3 0x36E PUSH3 0x1FF JUMP JUMPDEST SWAP1 POP PUSH3 0x37C DUP3 DUP3 PUSH3 0x32C JUMP JUMPDEST SWAP2 SWAP1 POP JUMP JUMPDEST PUSH1 0x0 PUSH8 0xFFFFFFFFFFFFFFFF DUP3 GT ISZERO PUSH3 0x39F JUMPI PUSH3 0x39E PUSH3 0x2FD JUMP JUMPDEST JUMPDEST PUSH3 0x3AA DUP3 PUSH3 0x2EC JUMP JUMPDEST SWAP1 POP PUSH1 0x20 DUP2 ADD SWAP1 POP SWAP2 SWAP1 POP JUMP JUMPDEST DUP3 DUP2 DUP4 CALLDATACOPY PUSH1 0x0 DUP4 DUP4 ADD MSTORE POP POP POP JUMP JUMPDEST PUSH1 0x0 PUSH3 0x3DD PUSH3 0x3D7 DUP5 PUSH3 0x381 JUMP JUMPDEST PUSH3 0x362 JUMP JUMPDEST SWAP1 POP DUP3 DUP2 MSTORE PUSH1 0x20 DUP2 ADD DUP5 DUP5 DUP5 ADD GT ISZERO PUSH3 0x3FC JUMPI PUSH3 0x3FB PUSH3 0x2E7 JUMP JUMPDEST JUMPDEST PUSH3 0x409 DUP5 DUP3 DUP6 PUSH3 0x3B7 JUMP JUMPDEST POP SWAP4 SWAP3 POP POP POP JUMP JUMPDEST PUSH1 0x0 DUP3 PUSH1 0x1F DUP4 ADD SLT PUSH3 0x429 JUMPI PUSH3 0x428 PUSH3 0x2E2 JUMP JUMPDEST JUMPDEST DUP2 CALLDATALOAD PUSH3 0x43B DUP5 DUP3 PUSH1 0x20 DUP7 ADD PUSH3 0x3C6 JUMP JUMPDEST SWAP2 POP POP SWAP3 SWAP2 POP POP JUMP JUMPDEST PUSH1 0x0 DUP1 PUSH1 0x0 DUP1 PUSH1 0x80 DUP6 DUP8 SUB SLT ISZERO PUSH3 0x461 JUMPI PUSH3 0x460 PUSH3 0x209 JUMP JUMPDEST JUMPDEST PUSH1 0x0 DUP6 ADD CALLDATALOAD PUSH8 0xFFFFFFFFFFFFFFFF DUP2 GT ISZERO PUSH3 0x482 JUMPI PUSH3 0x481 PUSH3 0x20E JUMP JUMPDEST JUMPDEST PUSH3 0x490 DUP8 DUP3 DUP9 ADD PUSH3 0x411 JUMP JUMPDEST SWAP5 POP POP PUSH1 0x20 DUP6 ADD CALLDATALOAD PUSH8 0xFFFFFFFFFFFFFFFF DUP2 GT ISZERO PUSH3 0x4B4 JUMPI PUSH3 0x4B3 PUSH3 0x20E JUMP JUMPDEST JUMPDEST PUSH3 0x4C2 DUP8 DUP3 DUP9 ADD PUSH3 0x411 JUMP JUMPDEST SWAP4 POP POP PUSH1 0x40 DUP6 ADD CALLDATALOAD PUSH8 0xFFFFFFFFFFFFFFFF DUP2 GT ISZERO PUSH3 0x4E6 JUMPI PUSH3 0x4E5 PUSH3 0x20E JUMP JUMPDEST JUMPDEST PUSH3 0x4F4 DUP8 DUP3 DUP9 ADD PUSH3 0x411 JUMP JUMPDEST SWAP3 POP POP PUSH1 0x60 DUP6 ADD CALLDATALOAD PUSH8 0xFFFFFFFFFFFFFFFF DUP2 GT ISZERO PUSH3 0x518 JUMPI PUSH3 0x517 PUSH3 0x20E JUMP JUMPDEST JUMPDEST PUSH3 0x526 DUP8 DUP3 DUP9 ADD PUSH3 0x411 JUMP JUMPDEST SWAP2 POP POP SWAP3 SWAP6 SWAP2 SWAP5 POP SWAP3 POP JUMP JUMPDEST PUSH1 0x0 DUP2 MLOAD SWAP1 POP SWAP2 SWAP1 POP JUMP JUMPDEST PUSH1 0x0 DUP3 DUP3 MSTORE PUSH1 0x20 DUP3 ADD SWAP1 POP SWAP3 SWAP2 POP POP JUMP JUMPDEST PUSH1 0x0 JUMPDEST DUP4 DUP2 LT ISZERO PUSH3 0x56E JUMPI DUP1 DUP3 ADD MLOAD DUP2 DUP5 ADD MSTORE PUSH1 0x20 DUP2 ADD SWAP1 POP PUSH3 0x551 JUMP JUMPDEST DUP4 DUP2 GT ISZERO PUSH3 0x57E JUMPI PUSH1 0x0 DUP5 DUP5 ADD MSTORE JUMPDEST POP POP POP POP JUMP JUMPDEST PUSH1 0x0 PUSH3 0x591 DUP3 PUSH3 0x532 JUMP JUMPDEST PUSH3 0x59D DUP2 DUP6 PUSH3 0x53D JUMP JUMPDEST SWAP4 POP PUSH3 0x5AF DUP2 DUP6 PUSH1 0x20 DUP7 ADD PUSH3 0x54E JUMP JUMPDEST PUSH3 0x5BA DUP2 PUSH3 0x2EC JUMP JUMPDEST DUP5 ADD SWAP2 POP POP SWAP3 SWAP2 POP POP JUMP JUMPDEST PUSH1 0x0 PUSH1 0x80 DUP3 ADD SWAP1 POP DUP2 DUP2 SUB PUSH1 0x0 DUP4 ADD MSTORE PUSH3 0x5E1 DUP2 DUP8 PUSH3 0x584 JUMP JUMPDEST SWAP1 POP DUP2 DUP2 SUB PUSH1 0x20 DUP4 ADD MSTORE PUSH3 0x5F7 DUP2 DUP7 PUSH3 0x584 JUMP JUMPDEST SWAP1 POP DUP2 DUP2 SUB PUSH1 0x40 DUP4 ADD MSTORE PUSH3 0x60D DUP2 DUP6 PUSH3 0x584 JUMP JUMPDEST SWAP1 POP PUSH3 0x61E PUSH1 0x60 DUP4 ADD DUP5 PUSH3 0x2B4 JUMP JUMPDEST SWAP6 SWAP5 POP POP POP POP POP JUMP JUMPDEST PUSH1 0x0 DUP2 SWAP1 POP SWAP3 SWAP2 POP POP JUMP JUMPDEST PUSH1 0x0 PUSH3 0x63F DUP3 PUSH3 0x532 JUMP JUMPDEST PUSH3 0x64B DUP2 DUP6 PUSH3 0x627 JUMP JUMPDEST SWAP4 POP PUSH3 0x65D DUP2 DUP6 PUSH1 0x20 DUP7 ADD PUSH3 0x54E JUMP JUMPDEST DUP1 DUP5 ADD SWAP2 POP POP SWAP3 SWAP2 POP POP JUMP JUMPDEST PUSH1 0x0 PUSH3 0x677 DUP3 DUP5 PUSH3 0x632 JUMP JUMPDEST SWAP2 POP DUP2 SWAP1 POP SWAP3 SWAP2 POP POP JUMP JUMPDEST PUSH1 0x0 PUSH1 0x80 DUP3 ADD SWAP1 POP DUP2 DUP2 SUB PUSH1 0x0 DUP4 ADD MSTORE PUSH3 0x69E DUP2 DUP8 PUSH3 0x584 JUMP JUMPDEST SWAP1 POP PUSH3 0x6AF PUSH1 0x20 DUP4 ADD DUP7 PUSH3 0x2B4 JUMP JUMPDEST DUP2 DUP2 SUB PUSH1 0x40 DUP4 ADD MSTORE PUSH3 0x6C3 DUP2 DUP6 PUSH3 0x584 JUMP JUMPDEST SWAP1 POP DUP2 DUP2 SUB PUSH1 0x60 DUP4 ADD MSTORE PUSH3 0x6D9 DUP2 DUP5 PUSH3 0x584 JUMP JUMPDEST SWAP1 POP SWAP6 SWAP5 POP POP POP POP POP JUMP INVALID PUSH1 0x80 PUSH1 0x40 MSTORE CALLVALUE DUP1 ISZERO PUSH3 0x11 JUMPI PUSH1 0x0 DUP1 REVERT JUMPDEST POP PUSH1 0x40 MLOAD PUSH3 0x90A CODESIZE SUB DUP1 PUSH3 0x90A DUP4 CODECOPY DUP2 DUP2 ADD PUSH1 0x40 MSTORE DUP2 ADD SWAP1 PUSH3 0x37 SWAP2 SWAP1 PUSH3 0x37F JUMP JUMPDEST DUP4 PUSH1 0x0 SWAP1 DUP1 MLOAD SWAP1 PUSH1 0x20 ADD SWAP1 PUSH3 0x4F SWAP3 SWAP2 SWAP1 PUSH3 0xCD JUMP JUMPDEST POP DUP3 PUSH1 0x1 SWAP1 DUP1 MLOAD SWAP1 PUSH1 0x20 ADD SWAP1 PUSH3 0x68 SWAP3 SWAP2 SWAP1 PUSH3 0xCD JUMP JUMPDEST POP DUP2 PUSH1 0x2 SWAP1 DUP1 MLOAD SWAP1 PUSH1 0x20 ADD SWAP1 PUSH3 0x81 SWAP3 SWAP2 SWAP1 PUSH3 0xCD JUMP JUMPDEST POP DUP1 PUSH1 0x3 PUSH1 0x0 PUSH2 0x100 EXP DUP2 SLOAD DUP2 PUSH20 0xFFFFFFFFFFFFFFFFFFFFFFFFFFFFFFFFFFFFFFFF MUL NOT AND SWAP1 DUP4 PUSH20 0xFFFFFFFFFFFFFFFFFFFFFFFFFFFFFFFFFFFFFFFF AND MUL OR SWAP1 SSTORE POP POP POP POP POP PUSH3 0x4B3 JUMP JUMPDEST DUP3 DUP1 SLOAD PUSH3 0xDB SWAP1 PUSH3 0x47D JUMP JUMPDEST SWAP1 PUSH1 0x0 MSTORE PUSH1 0x20 PUSH1 0x0 KECCAK256 SWAP1 PUSH1 0x1F ADD PUSH1 0x20 SWAP1 DIV DUP2 ADD SWAP3 DUP3 PUSH3 0xFF JUMPI PUSH1 0x0 DUP6 SSTORE PUSH3 0x14B JUMP JUMPDEST DUP3 PUSH1 0x1F LT PUSH3 0x11A JUMPI DUP1 MLOAD PUSH1 0xFF NOT AND DUP4 DUP1 ADD OR DUP6 SSTORE PUSH3 0x14B JUMP JUMPDEST DUP3 DUP1 ADD PUSH1 0x1 ADD DUP6 SSTORE DUP3 ISZERO PUSH3 0x14B JUMPI SWAP2 DUP3 ADD JUMPDEST DUP3 DUP2 GT ISZERO PUSH3 0x14A JUMPI DUP3 MLOAD DUP3 SSTORE SWAP2 PUSH1 0x20 ADD SWAP2 SWAP1 PUSH1 0x1 ADD SWAP1 PUSH3 0x12D JUMP JUMPDEST JUMPDEST POP SWAP1 POP PUSH3 0x15A SWAP2 SWAP1 PUSH3 0x15E JUMP JUMPDEST POP SWAP1 JUMP JUMPDEST JUMPDEST DUP1 DUP3 GT ISZERO PUSH3 0x179 JUMPI PUSH1 0x0 DUP2 PUSH1 0x0 SWAP1 SSTORE POP PUSH1 0x1 ADD PUSH3 0x15F JUMP JUMPDEST POP SWAP1 JUMP JUMPDEST PUSH1 0x0 PUSH1 0x40 MLOAD SWAP1 POP SWAP1 JUMP JUMPDEST PUSH1 0x0 DUP1 REVERT JUMPDEST PUSH1 0x0 DUP1 REVERT JUMPDEST PUSH1 0x0 DUP1 REVERT JUMPDEST PUSH1 0x0 DUP1 REVERT JUMPDEST PUSH1 0x0 PUSH1 0x1F NOT PUSH1 0x1F DUP4 ADD AND SWAP1 POP SWAP2 SWAP1 POP JUMP JUMPDEST PUSH32 0x4E487B7100000000000000000000000000000000000000000000000000000000 PUSH1 0x0 MSTORE PUSH1 0x41 PUSH1 0x4 MSTORE PUSH1 0x24 PUSH1 0x0 REVERT JUMPDEST PUSH3 0x1E6 DUP3 PUSH3 0x19B JUMP JUMPDEST DUP2 ADD DUP2 DUP2 LT PUSH8 0xFFFFFFFFFFFFFFFF DUP3 GT OR ISZERO PUSH3 0x208 JUMPI PUSH3 0x207 PUSH3 0x1AC JUMP JUMPDEST JUMPDEST DUP1 PUSH1 0x40 MSTORE POP POP POP JUMP JUMPDEST PUSH1 0x0 PUSH3 0x21D PUSH3 0x17D JUMP JUMPDEST SWAP1 POP PUSH3 0x22B DUP3 DUP3 PUSH3 0x1DB JUMP JUMPDEST SWAP2 SWAP1 POP JUMP JUMPDEST PUSH1 0x0 PUSH8 0xFFFFFFFFFFFFFFFF DUP3 GT ISZERO PUSH3 0x24E JUMPI PUSH3 0x24D PUSH3 0x1AC JUMP JUMPDEST JUMPDEST PUSH3 0x259 DUP3 PUSH3 0x19B JUMP JUMPDEST SWAP1 POP PUSH1 0x20 DUP2 ADD SWAP1 POP SWAP2 SWAP1 POP JUMP JUMPDEST PUSH1 0x0 JUMPDEST DUP4 DUP2 LT ISZERO PUSH3 0x286 JUMPI DUP1 DUP3 ADD MLOAD DUP2 DUP5 ADD MSTORE PUSH1 0x20 DUP2 ADD SWAP1 POP PUSH3 0x269 JUMP JUMPDEST DUP4 DUP2 GT ISZERO PUSH3 0x296 JUMPI PUSH1 0x0 DUP5 DUP5 ADD MSTORE JUMPDEST POP POP POP POP JUMP JUMPDEST PUSH1 0x0 PUSH3 0x2B3 PUSH3 0x2AD DUP5 PUSH3 0x230 JUMP JUMPDEST PUSH3 0x211 JUMP JUMPDEST SWAP1 POP DUP3 DUP2 MSTORE PUSH1 0x20 DUP2 ADD DUP5 DUP5 DUP5 ADD GT ISZERO PUSH3 0x2D2 JUMPI PUSH3 0x2D1 PUSH3 0x196 JUMP JUMPDEST JUMPDEST PUSH3 0x2DF DUP5 DUP3 DUP6 PUSH3 0x266 JUMP JUMPDEST POP SWAP4 SWAP3 POP POP POP JUMP JUMPDEST PUSH1 0x0 DUP3 PUSH1 0x1F DUP4 ADD SLT PUSH3 0x2FF JUMPI PUSH3 0x2FE PUSH3 0x191 JUMP JUMPDEST JUMPDEST DUP2 MLOAD PUSH3 0x311 DUP5 DUP3 PUSH1 0x20 DUP7 ADD PUSH3 0x29C JUMP JUMPDEST SWAP2 POP POP SWAP3 SWAP2 POP POP JUMP JUMPDEST PUSH1 0x0 PUSH20 0xFFFFFFFFFFFFFFFFFFFFFFFFFFFFFFFFFFFFFFFF DUP3 AND SWAP1 POP SWAP2 SWAP1 POP JUMP JUMPDEST PUSH1 0x0 PUSH3 0x347 DUP3 PUSH3 0x31A JUMP JUMPDEST SWAP1 POP SWAP2 SWAP1 POP JUMP JUMPDEST PUSH3 0x359 DUP2 PUSH3 0x33A JUMP JUMPDEST DUP2 EQ PUSH3 0x365 JUMPI PUSH1 0x0 DUP1 REVERT JUMPDEST POP JUMP JUMPDEST PUSH1 0x0 DUP2 MLOAD SWAP1 POP PUSH3 0x379 DUP2 PUSH3 0x34E JUMP JUMPDEST SWAP3 SWAP2 POP POP JUMP JUMPDEST PUSH1 0x0 DUP1 PUSH1 0x0 DUP1 PUSH1 0x80 DUP6 DUP8 SUB SLT ISZERO PUSH3 0x39C JUMPI PUSH3 0x39B PUSH3 0x187 JUMP JUMPDEST JUMPDEST PUSH1 0x0 DUP6 ADD MLOAD PUSH8 0xFFFFFFFFFFFFFFFF DUP2 GT ISZERO PUSH3 0x3BD JUMPI PUSH3 0x3BC PUSH3 0x18C JUMP JUMPDEST JUMPDEST PUSH3 0x3CB DUP8 DUP3 DUP9 ADD PUSH3 0x2E7 JUMP JUMPDEST SWAP5 POP POP PUSH1 0x20 DUP6 ADD MLOAD PUSH8 0xFFFFFFFFFFFFFFFF DUP2 GT ISZERO PUSH3 0x3EF JUMPI PUSH3 0x3EE PUSH3 0x18C JUMP JUMPDEST JUMPDEST PUSH3 0x3FD DUP8 DUP3 DUP9 ADD PUSH3 0x2E7 JUMP JUMPDEST SWAP4 POP POP PUSH1 0x40 DUP6 ADD MLOAD PUSH8 0xFFFFFFFFFFFFFFFF DUP2 GT ISZERO PUSH3 0x421 JUMPI PUSH3 0x420 PUSH3 0x18C JUMP JUMPDEST JUMPDEST PUSH3 0x42F DUP8 DUP3 DUP9 ADD PUSH3 0x2E7 JUMP JUMPDEST SWAP3 POP POP PUSH1 0x60 PUSH3 0x442 DUP8 DUP3 DUP9 ADD PUSH3 0x368 JUMP JUMPDEST SWAP2 POP POP SWAP3 SWAP6 SWAP2 SWAP5 POP SWAP3 POP JUMP JUMPDEST PUSH32 0x4E487B7100000000000000000000000000000000000000000000000000000000 PUSH1 0x0 MSTORE PUSH1 0x22 PUSH1 0x4 MSTORE PUSH1 0x24 PUSH1 0x0 REVERT JUMPDEST PUSH1 0x0 PUSH1 0x2 DUP3 DIV SWAP1 POP PUSH1 0x1 DUP3 AND DUP1 PUSH3 0x496 JUMPI PUSH1 0x7F DUP3 AND SWAP2 POP JUMPDEST PUSH1 0x20 DUP3 LT DUP2 EQ ISZERO PUSH3 0x4AD JUMPI PUSH3 0x4AC PUSH3 0x44E JUMP JUMPDEST JUMPDEST POP SWAP2 SWAP1 POP JUMP JUMPDEST PUSH2 0x447 DUP1 PUSH3 0x4C3 PUSH1 0x0 CODECOPY PUSH1 0x0 RETURN INVALID PUSH1 0x80 PUSH1 0x40 MSTORE CALLVALUE DUP1 ISZERO PUSH2 0x10 JUMPI PUSH1 0x0 DUP1 REVERT JUMPDEST POP PUSH1 0x4 CALLDATASIZE LT PUSH2 0x4C JUMPI PUSH1 0x0 CALLDATALOAD PUSH1 0xE0 SHR DUP1 PUSH4 0x46C922D1 EQ PUSH2 0x51 JUMPI DUP1 PUSH4 0x4A79D50C EQ PUSH2 0x6F JUMPI DUP1 PUSH4 0x8DA5CB5B EQ PUSH2 0x8D JUMPI DUP1 PUSH4 0xF3CCAAC0 EQ PUSH2 0xAB JUMPI JUMPDEST PUSH1 0x0 DUP1 REVERT JUMPDEST PUSH2 0x59 PUSH2 0xC9 JUMP JUMPDEST PUSH1 0x40 MLOAD PUSH2 0x66 SWAP2 SWAP1 PUSH2 0x332 JUMP JUMPDEST PUSH1 0x40 MLOAD DUP1 SWAP2 SUB SWAP1 RETURN JUMPDEST PUSH2 0x77 PUSH2 0x157 JUMP JUMPDEST PUSH1 0x40 MLOAD PUSH2 0x84 SWAP2 SWAP1 PUSH2 0x332 JUMP JUMPDEST PUSH1 0x40 MLOAD DUP1 SWAP2 SUB SWAP1 RETURN JUMPDEST PUSH2 0x95 PUSH2 0x1E5 JUMP JUMPDEST PUSH1 0x40 MLOAD PUSH2 0xA2 SWAP2 SWAP1 PUSH2 0x395 JUMP JUMPDEST PUSH1 0x40 MLOAD DUP1 SWAP2 SUB SWAP1 RETURN JUMPDEST PUSH2 0xB3 PUSH2 0x20B JUMP JUMPDEST PUSH1 0x40 MLOAD PUSH2 0xC0 SWAP2 SWAP1 PUSH2 0x332 JUMP JUMPDEST PUSH1 0x40 MLOAD DUP1 SWAP2 SUB SWAP1 RETURN JUMPDEST PUSH1 0x2 DUP1 SLOAD PUSH2 0xD6 SWAP1 PUSH2 0x3DF JUMP JUMPDEST DUP1 PUSH1 0x1F ADD PUSH1 0x20 DUP1 SWAP2 DIV MUL PUSH1 0x20 ADD PUSH1 0x40 MLOAD SWAP1 DUP2 ADD PUSH1 0x40 MSTORE DUP1 SWAP3 SWAP2 SWAP1 DUP2 DUP2 MSTORE PUSH1 0x20 ADD DUP3 DUP1 SLOAD PUSH2 0x102 SWAP1 PUSH2 0x3DF JUMP JUMPDEST DUP1 ISZERO PUSH2 0x14F JUMPI DUP1 PUSH1 0x1F LT PUSH2 0x124 JUMPI PUSH2 0x100 DUP1 DUP4 SLOAD DIV MUL DUP4 MSTORE SWAP2 PUSH1 0x20 ADD SWAP2 PUSH2 0x14F JUMP JUMPDEST DUP3 ADD SWAP2 SWAP1 PUSH1 0x0 MSTORE PUSH1 0x20 PUSH1 0x0 KECCAK256 SWAP1 JUMPDEST DUP2 SLOAD DUP2 MSTORE SWAP1 PUSH1 0x1 ADD SWAP1 PUSH1 0x20 ADD DUP1 DUP4 GT PUSH2 0x132 JUMPI DUP3 SWAP1 SUB PUSH1 0x1F AND DUP3 ADD SWAP2 JUMPDEST POP POP POP POP POP DUP2 JUMP JUMPDEST PUSH1 0x0 DUP1 SLOAD PUSH2 0x164 SWAP1 PUSH2 0x3DF JUMP JUMPDEST DUP1 PUSH1 0x1F ADD PUSH1 0x20 DUP1 SWAP2 DIV MUL PUSH1 0x20 ADD PUSH1 0x40 MLOAD SWAP1 DUP2 ADD PUSH1 0x40 MSTORE DUP1 SWAP3 SWAP2 SWAP1 DUP2 DUP2 MSTORE PUSH1 0x20 ADD DUP3 DUP1 SLOAD PUSH2 0x190 SWAP1 PUSH2 0x3DF JUMP JUMPDEST DUP1 ISZERO PUSH2 0x1DD JUMPI DUP1 PUSH1 0x1F LT PUSH2 0x1B2 JUMPI PUSH2 0x100 DUP1 DUP4 SLOAD DIV MUL DUP4 MSTORE SWAP2 PUSH1 0x20 ADD SWAP2 PUSH2 0x1DD JUMP JUMPDEST DUP3 ADD SWAP2 SWAP1 PUSH1 0x0 MSTORE PUSH1 0x20 PUSH1 0x0 KECCAK256 SWAP1 JUMPDEST DUP2 SLOAD DUP2 MSTORE SWAP1 PUSH1 0x1 ADD SWAP1 PUSH1 0x20 ADD DUP1 DUP4 GT PUSH2 0x1C0 JUMPI DUP3 SWAP1 SUB PUSH1 0x1F AND DUP3 ADD SWAP2 JUMPDEST POP POP POP POP POP DUP2 JUMP JUMPDEST PUSH1 0x3 PUSH1 0x0 SWAP1 SLOAD SWAP1 PUSH2 0x100 EXP SWAP1 DIV PUSH20 0xFFFFFFFFFFFFFFFFFFFFFFFFFFFFFFFFFFFFFFFF AND DUP2 JUMP JUMPDEST PUSH1 0x1 DUP1 SLOAD PUSH2 0x218 SWAP1 PUSH2 0x3DF JUMP JUMPDEST DUP1 PUSH1 0x1F ADD PUSH1 0x20 DUP1 SWAP2 DIV MUL PUSH1 0x20 ADD PUSH1 0x40 MLOAD SWAP1 DUP2 ADD PUSH1 0x40 MSTORE DUP1 SWAP3 SWAP2 SWAP1 DUP2 DUP2 MSTORE PUSH1 0x20 ADD DUP3 DUP1 SLOAD PUSH2 0x244 SWAP1 PUSH2 0x3DF JUMP JUMPDEST DUP1 ISZERO PUSH2 0x291 JUMPI DUP1 PUSH1 0x1F LT PUSH2 0x266 JUMPI PUSH2 0x100 DUP1 DUP4 SLOAD DIV MUL DUP4 MSTORE SWAP2 PUSH1 0x20 ADD SWAP2 PUSH2 0x291 JUMP JUMPDEST DUP3 ADD SWAP2 SWAP1 PUSH1 0x0 MSTORE PUSH1 0x20 PUSH1 0x0 KECCAK256 SWAP1 JUMPDEST DUP2 SLOAD DUP2 MSTORE SWAP1 PUSH1 0x1 ADD SWAP1 PUSH1 0x20 ADD DUP1 DUP4 GT PUSH2 0x274 JUMPI DUP3 SWAP1 SUB PUSH1 0x1F AND DUP3 ADD SWAP2 JUMPDEST POP POP POP POP POP DUP2 JUMP JUMPDEST PUSH1 0x0 DUP2 MLOAD SWAP1 POP SWAP2 SWAP1 POP JUMP JUMPDEST PUSH1 0x0 DUP3 DUP3 MSTORE PUSH1 0x20 DUP3 ADD SWAP1 POP SWAP3 SWAP2 POP POP JUMP JUMPDEST PUSH1 0x0 JUMPDEST DUP4 DUP2 LT ISZERO PUSH2 0x2D3 JUMPI DUP1 DUP3 ADD MLOAD DUP2 DUP5 ADD MSTORE PUSH1 0x20 DUP2 ADD SWAP1 POP PUSH2 0x2B8 JUMP JUMPDEST DUP4 DUP2 GT ISZERO PUSH2 0x2E2 JUMPI PUSH1 0x0 DUP5 DUP5 ADD MSTORE JUMPDEST POP POP POP POP JUMP JUMPDEST PUSH1 0x0 PUSH1 0x1F NOT PUSH1 0x1F DUP4 ADD AND SWAP1 POP SWAP2 SWAP1 POP JUMP JUMPDEST PUSH1 0x0 PUSH2 0x304 DUP3 PUSH2 0x299 JUMP JUMPDEST PUSH2 0x30E DUP2 DUP6 PUSH2 0x2A4 JUMP JUMPDEST SWAP4 POP PUSH2 0x31E DUP2 DUP6 PUSH1 0x20 DUP7 ADD PUSH2 0x2B5 JUMP JUMPDEST PUSH2 0x327 DUP2 PUSH2 0x2E8 JUMP JUMPDEST DUP5 ADD SWAP2 POP POP SWAP3 SWAP2 POP POP JUMP JUMPDEST PUSH1 0x0 PUSH1 0x20 DUP3 ADD SWAP1 POP DUP2 DUP2 SUB PUSH1 0x0 DUP4 ADD MSTORE PUSH2 0x34C DUP2 DUP5 PUSH2 0x2F9 JUMP JUMPDEST SWAP1 POP SWAP3 SWAP2 POP POP JUMP JUMPDEST PUSH1 0x0 PUSH20 0xFFFFFFFFFFFFFFFFFFFFFFFFFFFFFFFFFFFFFFFF DUP3 AND SWAP1 POP SWAP2 SWAP1 POP JUMP JUMPDEST PUSH1 0x0 PUSH2 0x37F DUP3 PUSH2 0x354 JUMP JUMPDEST SWAP1 POP SWAP2 SWAP1 POP JUMP JUMPDEST PUSH2 0x38F DUP2 PUSH2 0x374 JUMP JUMPDEST DUP3 MSTORE POP POP JUMP JUMPDEST PUSH1 0x0 PUSH1 0x20 DUP3 ADD SWAP1 POP PUSH2 0x3AA PUSH1 0x0 DUP4 ADD DUP5 PUSH2 0x386 JUMP JUMPDEST SWAP3 SWAP2 POP POP JUMP JUMPDEST PUSH32 0x4E487B7100000000000000000000000000000000000000000000000000000000 PUSH1 0x0 MSTORE PUSH1 0x22 PUSH1 0x4 MSTORE PUSH1 0x24 PUSH1 0x0 REVERT JUMPDEST PUSH1 0x0 PUSH1 0x2 DUP3 DIV SWAP1 POP PUSH1 0x1 DUP3 AND DUP1 PUSH2 0x3F7 JUMPI PUSH1 0x7F DUP3 AND SWAP2 POP JUMPDEST PUSH1 0x20 DUP3 LT DUP2 EQ ISZERO PUSH2 0x40B JUMPI PUSH2 0x40A PUSH2 0x3B0 JUMP JUMPDEST JUMPDEST POP SWAP2 SWAP1 POP JUMP INVALID LOG2 PUSH5 0x6970667358 0x22 SLT KECCAK256 0x25 DUP14 0x2E SDIV PUSH15 0x5EA55158FA980EBB4F569F37B2D65E 0xDF 0xB0 DUP4 0xB1 EXTCODESIZE 0x2E 0xAF 0xAE 0xD1 0x1E 0xEE SWAP4 PUSH5 0x736F6C6343 STOP ADDMOD EXP STOP CALLER LOG2 PUSH5 0x6970667358 0x22 SLT KECCAK256 SWAP15 0xAB 0xB1 PUSH10 0xADC0AE286A3338FD06A2 PUSH1 0x7F 0xA5 PUSH22 0x609839921DE6251BD501C4BF22FA64736F6C63430008 EXP STOP CALLER "},"methodIdentifiers":{"createNote(string,string,string,string)":"5782c201","deployedNotes(uint256)":"28de5491"}}}}}