{
  "_format": "hh-sol-artifact-1",
  "contractName": "Note",
  "sourceName": "contracts/Note.sol",
  "abi": [
    {
      "inputs": [
        {
          "internalType": "string",
          "name": "NoteTitle",
          "type": "string"
        },
        {
          "internalType": "string",
          "name": "imgURI",
          "type": "string"
        },
        {
          "internalType": "string",
          "name": "storyURI",
          "type": "string"
        },
        {
          "internalType": "address",
          "name": "NoteOwner",
          "type": "address"
        }
      ],
      "stateMutability": "nonpayable",
      "type": "constructor"
    },
    {
      "inputs": [],
      "name": "image",
      "outputs": [
        {
          "internalType": "string",
          "name": "",
          "type": "string"
        }
      ],
      "stateMutability": "view",
      "type": "function"
    },
    {
      "inputs": [],
      "name": "owner",
      "outputs": [
        {
          "internalType": "address",
          "name": "",
          "type": "address"
        }
      ],
      "stateMutability": "view",
      "type": "function"
    },
    {
      "inputs": [],
      "name": "story",
      "outputs": [
        {
          "internalType": "string",
          "name": "",
          "type": "string"
        }
      ],
      "stateMutability": "view",
      "type": "function"
    },
    {
      "inputs": [],
      "name": "title",
      "outputs": [
        {
          "internalType": "string",
          "name": "",
          "type": "string"
        }
      ],
      "stateMutability": "view",
      "type": "function"
    }
  ],
  "bytecode": "0x60806040523480156200001157600080fd5b506040516200090a3803806200090a83398181016040528101906200003791906200037f565b83600090805190602001906200004f929190620000cd565b50826001908051906020019062000068929190620000cd565b50816002908051906020019062000081929190620000cd565b5080600360006101000a81548173ffffffffffffffffffffffffffffffffffffffff021916908373ffffffffffffffffffffffffffffffffffffffff16021790555050505050620004b3565b828054620000db906200047d565b90600052602060002090601f016020900481019282620000ff57600085556200014b565b82601f106200011a57805160ff19168380011785556200014b565b828001600101855582156200014b579182015b828111156200014a5782518255916020019190600101906200012d565b5b5090506200015a91906200015e565b5090565b5b80821115620001795760008160009055506001016200015f565b5090565b6000604051905090565b600080fd5b600080fd5b600080fd5b600080fd5b6000601f19601f8301169050919050565b7f4e487b7100000000000000000000000000000000000000000000000000000000600052604160045260246000fd5b620001e6826200019b565b810181811067ffffffffffffffff82111715620002085762000207620001ac565b5b80604052505050565b60006200021d6200017d565b90506200022b8282620001db565b919050565b600067ffffffffffffffff8211156200024e576200024d620001ac565b5b62000259826200019b565b9050602081019050919050565b60005b838110156200028657808201518184015260208101905062000269565b8381111562000296576000848401525b50505050565b6000620002b3620002ad8462000230565b62000211565b905082815260208101848484011115620002d257620002d162000196565b5b620002df84828562000266565b509392505050565b600082601f830112620002ff57620002fe62000191565b5b8151620003118482602086016200029c565b91505092915050565b600073ffffffffffffffffffffffffffffffffffffffff82169050919050565b600062000347826200031a565b9050919050565b62000359816200033a565b81146200036557600080fd5b50565b60008151905062000379816200034e565b92915050565b600080600080608085870312156200039c576200039b62000187565b5b600085015167ffffffffffffffff811115620003bd57620003bc6200018c565b5b620003cb87828801620002e7565b945050602085015167ffffffffffffffff811115620003ef57620003ee6200018c565b5b620003fd87828801620002e7565b935050604085015167ffffffffffffffff8111156200042157620004206200018c565b5b6200042f87828801620002e7565b9250506060620004428782880162000368565b91505092959194509250565b7f4e487b7100000000000000000000000000000000000000000000000000000000600052602260045260246000fd5b600060028204905060018216806200049657607f821691505b60208210811415620004ad57620004ac6200044e565b5b50919050565b61044780620004c36000396000f3fe608060405234801561001057600080fd5b506004361061004c5760003560e01c806346c922d1146100515780634a79d50c1461006f5780638da5cb5b1461008d578063f3ccaac0146100ab575b600080fd5b6100596100c9565b6040516100669190610332565b60405180910390f35b610077610157565b6040516100849190610332565b60405180910390f35b6100956101e5565b6040516100a29190610395565b60405180910390f35b6100b361020b565b6040516100c09190610332565b60405180910390f35b600280546100d6906103df565b80601f0160208091040260200160405190810160405280929190818152602001828054610102906103df565b801561014f5780601f106101245761010080835404028352916020019161014f565b820191906000526020600020905b81548152906001019060200180831161013257829003601f168201915b505050505081565b60008054610164906103df565b80601f0160208091040260200160405190810160405280929190818152602001828054610190906103df565b80156101dd5780601f106101b2576101008083540402835291602001916101dd565b820191906000526020600020905b8154815290600101906020018083116101c057829003601f168201915b505050505081565b600360009054906101000a900473ffffffffffffffffffffffffffffffffffffffff1681565b60018054610218906103df565b80601f0160208091040260200160405190810160405280929190818152602001828054610244906103df565b80156102915780601f1061026657610100808354040283529160200191610291565b820191906000526020600020905b81548152906001019060200180831161027457829003601f168201915b505050505081565b600081519050919050565b600082825260208201905092915050565b60005b838110156102d35780820151818401526020810190506102b8565b838111156102e2576000848401525b50505050565b6000601f19601f8301169050919050565b600061030482610299565b61030e81856102a4565b935061031e8185602086016102b5565b610327816102e8565b840191505092915050565b6000602082019050818103600083015261034c81846102f9565b905092915050565b600073ffffffffffffffffffffffffffffffffffffffff82169050919050565b600061037f82610354565b9050919050565b61038f81610374565b82525050565b60006020820190506103aa6000830184610386565b92915050565b7f4e487b7100000000000000000000000000000000000000000000000000000000600052602260045260246000fd5b600060028204905060018216806103f757607f821691505b6020821081141561040b5761040a6103b0565b5b5091905056fea2646970667358221220258d2e056e5ea55158fa980ebb4f569f37b2d65edfb083b13b2eafaed11eee9364736f6c634300080a0033",
  "linkReferences": {},
  "deployedLinkReferences": {}
}