{
  "_format": "hh-sol-artifact-1",
  "contractName": "NoteFactory",
  "sourceName": "contracts/Note.sol",
  "abi": [
    {
      "anonymous": false,
      "inputs": [
        {
          "indexed": false,
          "internalType": "string",
          "name": "title",
          "type": "string"
        },
        {
          "indexed": false,
          "internalType": "address",
          "name": "NoteAddress",
          "type": "address"
        },
        {
          "indexed": true,
          "internalType": "address",
          "name": "owner",
          "type": "address"
        },
        {
          "indexed": false,
          "internalType": "string",
          "name": "imgURI",
          "type": "string"
        },
        {
          "indexed": true,
          "internalType": "uint256",
          "name": "timestamp",
          "type": "uint256"
        },
        {
          "indexed": false,
          "internalType": "string",
          "name": "storyURI",
          "type": "string"
        },
        {
          "indexed": true,
          "internalType": "string",
          "name": "category",
          "type": "string"
        }
      ],
      "name": "NoteCreated",
      "type": "event"
    },
    {
      "inputs": [
        {
          "internalType": "string",
          "name": "NoteTitle",
          "type": "string"
        },
        {
          "internalType": "string",
          "name": "imgURI",
          "type": "string"
        },
        {
          "internalType": "string",
          "name": "category",
          "type": "string"
        },
        {
          "internalType": "string",
          "name": "storyURI",
          "type": "string"
        }
      ],
      "name": "createNote",
      "outputs": [],
      "stateMutability": "nonpayable",
      "type": "function"
    },
    {
      "inputs": [
        {
          "internalType": "uint256",
          "name": "",
          "type": "uint256"
        }
      ],
      "name": "deployedNotes",
      "outputs": [
        {
          "internalType": "address",
          "name": "",
          "type": "address"
        }
      ],
      "stateMutability": "view",
      "type": "function"
    }
  ],
  "bytecode": "0x608060405234801561001057600080fd5b50611024806100206000396000f3fe60806040523480156200001157600080fd5b50600436106200003a5760003560e01c806328de5491146200003f5780635782c2011462000075575b600080fd5b6200005d60048036038101906200005791906200024e565b62000095565b6040516200006c9190620002c5565b60405180910390f35b6200009360048036038101906200008d919062000444565b620000d5565b005b60008181548110620000a657600080fd5b906000526020600020016000915054906101000a900473ffffffffffffffffffffffffffffffffffffffff1681565b600084848333604051620000e990620001f1565b620000f89493929190620005c5565b604051809103906000f08015801562000115573d6000803e3d6000fd5b5090506000819080600181540180825580915050600190039060005260206000200160009091909190916101000a81548173ffffffffffffffffffffffffffffffffffffffff021916908373ffffffffffffffffffffffffffffffffffffffff160217905550826040516200018b919062000669565b6040518091039020423373ffffffffffffffffffffffffffffffffffffffff167f897ec2327523691f5cf1640515998660f0a6441da9619e6bb4bc01035ffca21288858988604051620001e2949392919062000682565b60405180910390a45050505050565b61090a80620006e583390190565b6000604051905090565b600080fd5b600080fd5b6000819050919050565b620002288162000213565b81146200023457600080fd5b50565b60008135905062000248816200021d565b92915050565b60006020828403121562000267576200026662000209565b5b6000620002778482850162000237565b91505092915050565b600073ffffffffffffffffffffffffffffffffffffffff82169050919050565b6000620002ad8262000280565b9050919050565b620002bf81620002a0565b82525050565b6000602082019050620002dc6000830184620002b4565b92915050565b600080fd5b600080fd5b6000601f19601f8301169050919050565b7f4e487b7100000000000000000000000000000000000000000000000000000000600052604160045260246000fd5b6200033782620002ec565b810181811067ffffffffffffffff82111715620003595762000358620002fd565b5b80604052505050565b60006200036e620001ff565b90506200037c82826200032c565b919050565b600067ffffffffffffffff8211156200039f576200039e620002fd565b5b620003aa82620002ec565b9050602081019050919050565b82818337600083830152505050565b6000620003dd620003d78462000381565b62000362565b905082815260208101848484011115620003fc57620003fb620002e7565b5b62000409848285620003b7565b509392505050565b600082601f830112620004295762000428620002e2565b5b81356200043b848260208601620003c6565b91505092915050565b6000806000806080858703121562000461576200046062000209565b5b600085013567ffffffffffffffff8111156200048257620004816200020e565b5b620004908782880162000411565b945050602085013567ffffffffffffffff811115620004b457620004b36200020e565b5b620004c28782880162000411565b935050604085013567ffffffffffffffff811115620004e657620004e56200020e565b5b620004f48782880162000411565b925050606085013567ffffffffffffffff8111156200051857620005176200020e565b5b620005268782880162000411565b91505092959194509250565b600081519050919050565b600082825260208201905092915050565b60005b838110156200056e57808201518184015260208101905062000551565b838111156200057e576000848401525b50505050565b6000620005918262000532565b6200059d81856200053d565b9350620005af8185602086016200054e565b620005ba81620002ec565b840191505092915050565b60006080820190508181036000830152620005e1818762000584565b90508181036020830152620005f7818662000584565b905081810360408301526200060d818562000584565b90506200061e6060830184620002b4565b95945050505050565b600081905092915050565b60006200063f8262000532565b6200064b818562000627565b93506200065d8185602086016200054e565b80840191505092915050565b600062000677828462000632565b915081905092915050565b600060808201905081810360008301526200069e818762000584565b9050620006af6020830186620002b4565b8181036040830152620006c3818562000584565b90508181036060830152620006d9818462000584565b90509594505050505056fe60806040523480156200001157600080fd5b506040516200090a3803806200090a83398181016040528101906200003791906200037f565b83600090805190602001906200004f929190620000cd565b50826001908051906020019062000068929190620000cd565b50816002908051906020019062000081929190620000cd565b5080600360006101000a81548173ffffffffffffffffffffffffffffffffffffffff021916908373ffffffffffffffffffffffffffffffffffffffff16021790555050505050620004b3565b828054620000db906200047d565b90600052602060002090601f016020900481019282620000ff57600085556200014b565b82601f106200011a57805160ff19168380011785556200014b565b828001600101855582156200014b579182015b828111156200014a5782518255916020019190600101906200012d565b5b5090506200015a91906200015e565b5090565b5b80821115620001795760008160009055506001016200015f565b5090565b6000604051905090565b600080fd5b600080fd5b600080fd5b600080fd5b6000601f19601f8301169050919050565b7f4e487b7100000000000000000000000000000000000000000000000000000000600052604160045260246000fd5b620001e6826200019b565b810181811067ffffffffffffffff82111715620002085762000207620001ac565b5b80604052505050565b60006200021d6200017d565b90506200022b8282620001db565b919050565b600067ffffffffffffffff8211156200024e576200024d620001ac565b5b62000259826200019b565b9050602081019050919050565b60005b838110156200028657808201518184015260208101905062000269565b8381111562000296576000848401525b50505050565b6000620002b3620002ad8462000230565b62000211565b905082815260208101848484011115620002d257620002d162000196565b5b620002df84828562000266565b509392505050565b600082601f830112620002ff57620002fe62000191565b5b8151620003118482602086016200029c565b91505092915050565b600073ffffffffffffffffffffffffffffffffffffffff82169050919050565b600062000347826200031a565b9050919050565b62000359816200033a565b81146200036557600080fd5b50565b60008151905062000379816200034e565b92915050565b600080600080608085870312156200039c576200039b62000187565b5b600085015167ffffffffffffffff811115620003bd57620003bc6200018c565b5b620003cb87828801620002e7565b945050602085015167ffffffffffffffff811115620003ef57620003ee6200018c565b5b620003fd87828801620002e7565b935050604085015167ffffffffffffffff8111156200042157620004206200018c565b5b6200042f87828801620002e7565b9250506060620004428782880162000368565b91505092959194509250565b7f4e487b7100000000000000000000000000000000000000000000000000000000600052602260045260246000fd5b600060028204905060018216806200049657607f821691505b60208210811415620004ad57620004ac6200044e565b5b50919050565b61044780620004c36000396000f3fe608060405234801561001057600080fd5b506004361061004c5760003560e01c806346c922d1146100515780634a79d50c1461006f5780638da5cb5b1461008d578063f3ccaac0146100ab575b600080fd5b6100596100c9565b6040516100669190610332565b60405180910390f35b610077610157565b6040516100849190610332565b60405180910390f35b6100956101e5565b6040516100a29190610395565b60405180910390f35b6100b361020b565b6040516100c09190610332565b60405180910390f35b600280546100d6906103df565b80601f0160208091040260200160405190810160405280929190818152602001828054610102906103df565b801561014f5780601f106101245761010080835404028352916020019161014f565b820191906000526020600020905b81548152906001019060200180831161013257829003601f168201915b505050505081565b60008054610164906103df565b80601f0160208091040260200160405190810160405280929190818152602001828054610190906103df565b80156101dd5780601f106101b2576101008083540402835291602001916101dd565b820191906000526020600020905b8154815290600101906020018083116101c057829003601f168201915b505050505081565b600360009054906101000a900473ffffffffffffffffffffffffffffffffffffffff1681565b60018054610218906103df565b80601f0160208091040260200160405190810160405280929190818152602001828054610244906103df565b80156102915780601f1061026657610100808354040283529160200191610291565b820191906000526020600020905b81548152906001019060200180831161027457829003601f168201915b505050505081565b600081519050919050565b600082825260208201905092915050565b60005b838110156102d35780820151818401526020810190506102b8565b838111156102e2576000848401525b50505050565b6000601f19601f8301169050919050565b600061030482610299565b61030e81856102a4565b935061031e8185602086016102b5565b610327816102e8565b840191505092915050565b6000602082019050818103600083015261034c81846102f9565b905092915050565b600073ffffffffffffffffffffffffffffffffffffffff82169050919050565b600061037f82610354565b9050919050565b61038f81610374565b82525050565b60006020820190506103aa6000830184610386565b92915050565b7f4e487b7100000000000000000000000000000000000000000000000000000000600052602260045260246000fd5b600060028204905060018216806103f757607f821691505b6020821081141561040b5761040a6103b0565b5b5091905056fea2646970667358221220258d2e056e5ea55158fa980ebb4f569f37b2d65edfb083b13b2eafaed11eee9364736f6c634300080a0033a26469706673582212209eabb169adc0ae286a3338fd06a2607fa575609839921de6251bd501c4bf22fa64736f6c634300080a0033",
  "linkReferences": {},
  "deployedLinkReferences": {}
}